{
  "_format": "hh-sol-artifact-1",
  "contractName": "realestate",
  "sourceName": "contracts/realestate.sol",
  "abi": [
    {
      "inputs": [
        {
          "internalType": "address",
          "name": "_token",
          "type": "address"
        }
      ],
      "stateMutability": "nonpayable",
      "type": "constructor"
    },
    {
      "inputs": [
        {
          "internalType": "uint256",
          "name": "x",
          "type": "uint256"
        }
      ],
      "name": "PRBMathUD60x18__FromUintOverflow",
      "type": "error"
    },
    {
      "inputs": [
        {
          "internalType": "uint256",
          "name": "prod1",
          "type": "uint256"
        }
      ],
      "name": "PRBMath__MulDivFixedPointOverflow",
      "type": "error"
    },
    {
      "inputs": [
        {
          "internalType": "uint256",
          "name": "prod1",
          "type": "uint256"
        },
        {
          "internalType": "uint256",
          "name": "denominator",
          "type": "uint256"
        }
      ],
      "name": "PRBMath__MulDivOverflow",
      "type": "error"
    },
    {
      "inputs": [
        {
          "internalType": "address",
          "name": "",
          "type": "address"
        }
      ],
      "name": "BSdetails",
      "outputs": [
        {
          "internalType": "address",
          "name": "buyer",
          "type": "address"
        },
        {
          "internalType": "bytes",
          "name": "location",
          "type": "bytes"
        },
        {
          "internalType": "bytes",
          "name": "contact",
          "type": "bytes"
        }
      ],
      "stateMutability": "view",
      "type": "function"
    },
    {
      "inputs": [
        {
          "internalType": "uint256",
          "name": "id",
          "type": "uint256"
        },
        {
          "internalType": "uint256",
          "name": "amount",
          "type": "uint256"
        },
        {
          "internalType": "address",
          "name": "owner",
          "type": "address"
        }
      ],
      "name": "BuyAsset",
      "outputs": [],
      "stateMutability": "nonpayable",
      "type": "function"
    },
    {
      "inputs": [
        {
          "internalType": "bytes",
          "name": "assetLocation",
          "type": "bytes"
        },
        {
          "internalType": "bytes",
          "name": "assetcontact",
          "type": "bytes"
        },
        {
          "internalType": "uint256",
          "name": "assetcost",
          "type": "uint256"
        }
      ],
      "name": "addAsset",
      "outputs": [],
      "stateMutability": "nonpayable",
      "type": "function"
    },
    {
      "inputs": [
        {
          "internalType": "bytes",
          "name": "_location",
          "type": "bytes"
        },
        {
          "internalType": "bytes",
          "name": "_contact",
          "type": "bytes"
        }
      ],
      "name": "addbuyerseller",
      "outputs": [],
      "stateMutability": "nonpayable",
      "type": "function"
    },
    {
      "inputs": [
        {
          "internalType": "uint256",
          "name": "",
          "type": "uint256"
        }
      ],
      "name": "assetDetails",
      "outputs": [
        {
          "internalType": "address",
          "name": "owner",
          "type": "address"
        },
        {
          "internalType": "bytes",
          "name": "location",
          "type": "bytes"
        },
        {
          "internalType": "uint256",
          "name": "id",
          "type": "uint256"
        },
        {
          "internalType": "bytes",
          "name": "contact",
          "type": "bytes"
        },
        {
          "internalType": "uint256",
          "name": "cost",
          "type": "uint256"
        }
      ],
      "stateMutability": "view",
      "type": "function"
    },
    {
      "inputs": [],
      "name": "assetid",
      "outputs": [
        {
          "internalType": "uint256",
          "name": "",
          "type": "uint256"
        }
      ],
      "stateMutability": "view",
      "type": "function"
    },
    {
      "inputs": [
        {
          "internalType": "uint256",
          "name": "",
          "type": "uint256"
        },
        {
          "internalType": "uint256",
          "name": "",
          "type": "uint256"
        }
      ],
      "name": "assetowners",
      "outputs": [
        {
          "internalType": "address",
          "name": "",
          "type": "address"
        }
      ],
      "stateMutability": "view",
      "type": "function"
    },
    {
      "inputs": [
        {
          "internalType": "address",
          "name": "",
          "type": "address"
        },
        {
          "internalType": "uint256",
          "name": "",
          "type": "uint256"
        }
      ],
      "name": "assetowns",
      "outputs": [
        {
          "internalType": "uint256",
          "name": "",
          "type": "uint256"
        }
      ],
      "stateMutability": "view",
      "type": "function"
    },
    {
      "inputs": [
        {
          "internalType": "address",
          "name": "",
          "type": "address"
        }
      ],
      "name": "exist",
      "outputs": [
        {
          "internalType": "bool",
          "name": "",
          "type": "bool"
        }
      ],
      "stateMutability": "view",
      "type": "function"
    },
    {
      "inputs": [
        {
          "internalType": "uint256",
          "name": "id",
          "type": "uint256"
        }
      ],
      "name": "getAssetowners",
      "outputs": [
        {
          "internalType": "address[]",
          "name": "",
          "type": "address[]"
        }
      ],
      "stateMutability": "view",
      "type": "function"
    },
    {
      "inputs": [
        {
          "internalType": "address",
          "name": "owner",
          "type": "address"
        }
      ],
      "name": "getAssetowns",
      "outputs": [
        {
          "internalType": "uint256[]",
          "name": "",
          "type": "uint256[]"
        }
      ],
      "stateMutability": "view",
      "type": "function"
    },
    {
      "inputs": [
        {
          "internalType": "address",
          "name": "owner",
          "type": "address"
        },
        {
          "internalType": "uint256",
          "name": "Assetid",
          "type": "uint256"
        }
      ],
      "name": "getOwn",
      "outputs": [
        {
          "internalType": "bool",
          "name": "",
          "type": "bool"
        }
      ],
      "stateMutability": "view",
      "type": "function"
    },
    {
      "inputs": [
        {
          "internalType": "uint256",
          "name": "a",
          "type": "uint256"
        },
        {
          "internalType": "uint256",
          "name": "b",
          "type": "uint256"
        }
      ],
      "name": "getPercentage",
      "outputs": [
        {
          "internalType": "uint256",
          "name": "",
          "type": "uint256"
        }
      ],
      "stateMutability": "pure",
      "type": "function"
    },
    {
      "inputs": [
        {
          "internalType": "address",
          "name": "owner",
          "type": "address"
        },
        {
          "internalType": "uint256",
          "name": "_assetid",
          "type": "uint256"
        }
      ],
      "name": "getPercentageown",
      "outputs": [
        {
          "internalType": "uint256",
          "name": "",
          "type": "uint256"
        }
      ],
      "stateMutability": "view",
      "type": "function"
    },
    {
      "inputs": [
        {
          "internalType": "address",
          "name": "owner",
          "type": "address"
        },
        {
          "internalType": "uint256",
          "name": "assetId",
          "type": "uint256"
        }
      ],
      "name": "getSellonof",
      "outputs": [
        {
          "internalType": "bool",
          "name": "",
          "type": "bool"
        }
      ],
      "stateMutability": "view",
      "type": "function"
    },
    {
      "inputs": [
        {
          "internalType": "address",
          "name": "",
          "type": "address"
        },
        {
          "internalType": "uint256",
          "name": "",
          "type": "uint256"
        }
      ],
      "name": "own",
      "outputs": [
        {
          "internalType": "bool",
          "name": "",
          "type": "bool"
        }
      ],
      "stateMutability": "view",
      "type": "function"
    },
    {
      "inputs": [
        {
          "internalType": "address",
          "name": "",
          "type": "address"
        },
        {
          "internalType": "uint256",
          "name": "",
          "type": "uint256"
        }
      ],
      "name": "percentageown",
      "outputs": [
        {
          "internalType": "uint256",
          "name": "",
          "type": "uint256"
        }
      ],
      "stateMutability": "view",
      "type": "function"
    },
    {
      "inputs": [
        {
          "internalType": "uint256",
          "name": "id",
          "type": "uint256"
        }
      ],
      "name": "selloff",
      "outputs": [],
      "stateMutability": "nonpayable",
      "type": "function"
    },
    {
      "inputs": [
        {
          "internalType": "uint256",
          "name": "id",
          "type": "uint256"
        }
      ],
      "name": "sellon",
      "outputs": [],
      "stateMutability": "nonpayable",
      "type": "function"
    },
    {
      "inputs": [
        {
          "internalType": "address",
          "name": "",
          "type": "address"
        },
        {
          "internalType": "uint256",
          "name": "",
          "type": "uint256"
        }
      ],
      "name": "sellonof",
      "outputs": [
        {
          "internalType": "bool",
          "name": "",
          "type": "bool"
        }
      ],
      "stateMutability": "view",
      "type": "function"
    },
    {
      "inputs": [],
      "name": "token",
      "outputs": [
        {
          "internalType": "contract IERC20",
          "name": "",
          "type": "address"
        }
      ],
      "stateMutability": "view",
      "type": "function"
    }
  ],
  "bytecode": "0x60a06040523480156200001157600080fd5b5060405162003338380380620033388339818101604052810190620000379190620000dc565b8073ffffffffffffffffffffffffffffffffffffffff1660808173ffffffffffffffffffffffffffffffffffffffff1681525050506200010e565b600080fd5b600073ffffffffffffffffffffffffffffffffffffffff82169050919050565b6000620000a48262000077565b9050919050565b620000b68162000097565b8114620000c257600080fd5b50565b600081519050620000d681620000ab565b92915050565b600060208284031215620000f557620000f462000072565b5b60006200010584828501620000c5565b91505092915050565b6080516132006200013860003960008181610bab01528181610eb80152611f6801526132006000f3fe608060405234801561001057600080fd5b50600436106101375760003560e01c80638ac9fa37116100b8578063a840c55c1161007c578063a840c55c146103c0578063b80bfff2146103dc578063c39675281461040c578063cd8d051514610440578063f74f36551461045c578063fc0c546a1461048c57610137565b80638ac9fa37146102e4578063934960f2146103145780639b5c483e146103445780639e30afab14610360578063a7d963041461039057610137565b80634dfefc4b116100ff5780634dfefc4b1461021a57806356354b261461024a578063626e5b101461027a57806362b1fa391461029857806366873f64146102c857610137565b80630682c4a41461013c578063104972311461016c57806339e888171461018857806345454362146101b857806349143619146101e8575b600080fd5b610156600480360381019061015191906123ab565b6104aa565b6040516101639190612406565b60405180910390f35b61018660048036038101906101819190612421565b6104d9565b005b6101a2600480360381019061019d91906123ab565b610f8b565b6040516101af9190612406565b60405180910390f35b6101d260048036038101906101cd91906123ab565b610ff3565b6040516101df9190612483565b60405180910390f35b61020260048036038101906101fd919061249e565b611024565b60405161021193929190612573565b60405180910390f35b610234600480360381019061022f919061249e565b61117e565b6040516102419190612406565b60405180910390f35b610264600480360381019061025f91906125b8565b61119e565b60405161027191906125f8565b60405180910390f35b6102826111ec565b60405161028f9190612483565b60405180910390f35b6102b260048036038101906102ad91906123ab565b6111f2565b6040516102bf9190612406565b60405180910390f35b6102e260048036038101906102dd9190612748565b611221565b005b6102fe60048036038101906102f991906127d3565b611659565b60405161030b91906128be565b60405180910390f35b61032e600480360381019061032991906123ab565b6116fa565b60405161033b9190612483565b60405180910390f35b61035e600480360381019061035991906127d3565b61171f565b005b61037a600480360381019061037591906123ab565b6118d3565b6040516103879190612483565b60405180910390f35b6103aa60048036038101906103a591906123ab565b61192e565b6040516103b79190612406565b60405180910390f35b6103da60048036038101906103d591906127d3565b611996565b005b6103f660048036038101906103f1919061249e565b611b4a565b604051610403919061299e565b60405180910390f35b610426600480360381019061042191906127d3565b611be1565b6040516104379594939291906129c0565b60405180910390f35b61045a60048036038101906104559190612a21565b611d47565b005b610476600480360381019061047191906125b8565b611f29565b6040516104839190612483565b60405180910390f35b610494611f66565b6040516104a19190612af8565b60405180910390f35b60076020528160005260406000206020528060005260406000206000915091509054906101000a900460ff1681565b600960009054906101000a900460ff1615610529576040517f08c379a000000000000000000000000000000000000000000000000000000000815260040161052090612b70565b60405180910390fd5b6001600960006101000a81548160ff02191690831515021790555060008211610587576040517f08c379a000000000000000000000000000000000000000000000000000000000815260040161057e90612bdc565b60405180910390fd5b600083116105ca576040517f08c379a00000000000000000000000000000000000000000000000000000000081526004016105c190612c48565b60405180910390fd5b60011515600160003373ffffffffffffffffffffffffffffffffffffffff1673ffffffffffffffffffffffffffffffffffffffff16815260200190815260200160002060009054906101000a900460ff1615151461065d576040517f08c379a000000000000000000000000000000000000000000000000000000000815260040161065490612cb4565b60405180910390fd5b60011515600760008373ffffffffffffffffffffffffffffffffffffffff1673ffffffffffffffffffffffffffffffffffffffff168152602001908152602001600020600085815260200190815260200160002060009054906101000a900460ff16151514610701576040517f08c379a00000000000000000000000000000000000000000000000000000000081526004016106f890612d20565b60405180910390fd5b6000600660008373ffffffffffffffffffffffffffffffffffffffff1673ffffffffffffffffffffffffffffffffffffffff168152602001908152602001600020600085815260200190815260200160002054905060008111610799576040517f08c379a000000000000000000000000000000000000000000000000000000000815260040161079090612d8c565b60405180910390fd5b600060036000600181526020019081526020016000206040518060a00160405290816000820160009054906101000a900473ffffffffffffffffffffffffffffffffffffffff1673ffffffffffffffffffffffffffffffffffffffff1673ffffffffffffffffffffffffffffffffffffffff16815260200160018201805461082090612ddb565b80601f016020809104026020016040519081016040528092919081815260200182805461084c90612ddb565b80156108995780601f1061086e57610100808354040283529160200191610899565b820191906000526020600020905b81548152906001019060200180831161087c57829003601f168201915b50505050508152602001600282015481526020016003820180546108bc90612ddb565b80601f01602080910402602001604051908101604052809291908181526020018280546108e890612ddb565b80156109355780601f1061090a57610100808354040283529160200191610935565b820191906000526020600020905b81548152906001019060200180831161091857829003601f168201915b505050505081526020016004820154815250509050600081608001519050600061095f8683611f29565b9050838111156109a4576040517f08c379a000000000000000000000000000000000000000000000000000000000815260040161099b90612e59565b60405180910390fd5b83811015610c5f57600081856109ba9190612ea8565b905080600660008873ffffffffffffffffffffffffffffffffffffffff1673ffffffffffffffffffffffffffffffffffffffff16815260200190815260200160002060008a81526020019081526020016000208190555081600660003373ffffffffffffffffffffffffffffffffffffffff1673ffffffffffffffffffffffffffffffffffffffff16815260200190815260200160002060008a8152602001908152602001600020819055506001600760003373ffffffffffffffffffffffffffffffffffffffff1673ffffffffffffffffffffffffffffffffffffffff16815260200190815260200160002060008a815260200190815260200160002060006101000a81548160ff021916908315150217905550600560003373ffffffffffffffffffffffffffffffffffffffff1673ffffffffffffffffffffffffffffffffffffffff16815260200190815260200160002088908060018154018082558091505060019003906000526020600020016000909190919091505560046000898152602001908152602001600020339080600181540180825580915050600190039060005260206000200160009091909190916101000a81548173ffffffffffffffffffffffffffffffffffffffff021916908373ffffffffffffffffffffffffffffffffffffffff1602179055507f000000000000000000000000000000000000000000000000000000000000000073ffffffffffffffffffffffffffffffffffffffff166323b872dd33888a6040518463ffffffff1660e01b8152600401610c0693929190612edc565b602060405180830381600087803b158015610c2057600080fd5b505af1158015610c34573d6000803e3d6000fd5b505050506040513d601f19601f82011682018060405250810190610c589190612f3f565b5050610f67565b6000600660008773ffffffffffffffffffffffffffffffffffffffff1673ffffffffffffffffffffffffffffffffffffffff16815260200190815260200160002060008981526020019081526020016000208190555080600660003373ffffffffffffffffffffffffffffffffffffffff1673ffffffffffffffffffffffffffffffffffffffff1681526020019081526020016000206000898152602001908152602001600020819055506001600760003373ffffffffffffffffffffffffffffffffffffffff1673ffffffffffffffffffffffffffffffffffffffff168152602001908152602001600020600089815260200190815260200160002060006101000a81548160ff0219169083151502179055506000600760008773ffffffffffffffffffffffffffffffffffffffff1673ffffffffffffffffffffffffffffffffffffffff168152602001908152602001600020600089815260200190815260200160002060006101000a81548160ff02191690831515021790555060046000888152602001908152602001600020339080600181540180825580915050600190039060005260206000200160009091909190916101000a81548173ffffffffffffffffffffffffffffffffffffffff021916908373ffffffffffffffffffffffffffffffffffffffff160217905550600560003373ffffffffffffffffffffffffffffffffffffffff1673ffffffffffffffffffffffffffffffffffffffff1681526020019081526020016000208790806001815401808255809150506001900390600052602060002001600090919091909150557f000000000000000000000000000000000000000000000000000000000000000073ffffffffffffffffffffffffffffffffffffffff166323b872dd3387896040518463ffffffff1660e01b8152600401610f1393929190612edc565b602060405180830381600087803b158015610f2d57600080fd5b505af1158015610f41573d6000803e3d6000fd5b505050506040513d601f19601f82011682018060405250810190610f659190612f3f565b505b505050506000600960006101000a81548160ff021916908315150217905550505050565b6000600860008473ffffffffffffffffffffffffffffffffffffffff1673ffffffffffffffffffffffffffffffffffffffff168152602001908152602001600020600083815260200190815260200160002060009054906101000a900460ff16905092915050565b6005602052816000526040600020818154811061100f57600080fd5b90600052602060002001600091509150505481565b60026020528060005260406000206000915090508060000160009054906101000a900473ffffffffffffffffffffffffffffffffffffffff169080600101805461106d90612ddb565b80601f016020809104026020016040519081016040528092919081815260200182805461109990612ddb565b80156110e65780601f106110bb576101008083540402835291602001916110e6565b820191906000526020600020905b8154815290600101906020018083116110c957829003601f168201915b5050505050908060020180546110fb90612ddb565b80601f016020809104026020016040519081016040528092919081815260200182805461112790612ddb565b80156111745780601f1061114957610100808354040283529160200191611174565b820191906000526020600020905b81548152906001019060200180831161115757829003601f168201915b5050505050905083565b60016020528060005260406000206000915054906101000a900460ff1681565b600460205281600052604060002081815481106111ba57600080fd5b906000526020600020016000915091509054906101000a900473ffffffffffffffffffffffffffffffffffffffff1681565b60005481565b60086020528160005260406000206020528060005260406000206000915091509054906101000a900460ff1681565b600960009054906101000a900460ff1615611271576040517f08c379a000000000000000000000000000000000000000000000000000000000815260040161126890612b70565b60405180910390fd5b6001600960006101000a81548160ff02191690831515021790555060011515600160003373ffffffffffffffffffffffffffffffffffffffff1673ffffffffffffffffffffffffffffffffffffffff16815260200190815260200160002060009054906101000a900460ff1615151461131f576040517f08c379a000000000000000000000000000000000000000000000000000000000815260040161131690612cb4565b60405180910390fd5b60016000808282546113319190612f6c565b925050819055506004600080548152602001908152602001600020339080600181540180825580915050600190039060005260206000200160009091909190916101000a81548173ffffffffffffffffffffffffffffffffffffffff021916908373ffffffffffffffffffffffffffffffffffffffff160217905550600560003373ffffffffffffffffffffffffffffffffffffffff1673ffffffffffffffffffffffffffffffffffffffff168152602001908152602001600020600054908060018154018082558091505060019003906000526020600020016000909190919091505568056bc75e2d63100000600660003373ffffffffffffffffffffffffffffffffffffffff1673ffffffffffffffffffffffffffffffffffffffff168152602001908152602001600020600080548152602001908152602001600020819055506001600760003373ffffffffffffffffffffffffffffffffffffffff1673ffffffffffffffffffffffffffffffffffffffff16815260200190815260200160002060008054815260200190815260200160002060006101000a81548160ff0219169083151502179055506000600860003373ffffffffffffffffffffffffffffffffffffffff1673ffffffffffffffffffffffffffffffffffffffff16815260200190815260200160002060008054815260200190815260200160002060006101000a81548160ff02191690831515021790555060006040518060a001604052803373ffffffffffffffffffffffffffffffffffffffff168152602001858152602001600054815260200184815260200183815250905080600360008054815260200190815260200160002060008201518160000160006101000a81548173ffffffffffffffffffffffffffffffffffffffff021916908373ffffffffffffffffffffffffffffffffffffffff1602179055506020820151816001019080519060200190611603929190612260565b5060408201518160020155606082015181600301908051906020019061162a929190612260565b5060808201518160040155905050506000600960006101000a81548160ff021916908315150217905550505050565b6060600460008381526020019081526020016000208054806020026020016040519081016040528092919081815260200182805480156116ee57602002820191906000526020600020905b8160009054906101000a900473ffffffffffffffffffffffffffffffffffffffff1673ffffffffffffffffffffffffffffffffffffffff16815260200190600101908083116116a4575b50505050509050919050565b6006602052816000526040600020602052806000526040600020600091509150505481565b60011515600760003373ffffffffffffffffffffffffffffffffffffffff1673ffffffffffffffffffffffffffffffffffffffff168152602001908152602001600020600083815260200190815260200160002060009054906101000a900460ff161515146117c3576040517f08c379a00000000000000000000000000000000000000000000000000000000081526004016117ba9061300e565b60405180910390fd5b60001515600860003373ffffffffffffffffffffffffffffffffffffffff1673ffffffffffffffffffffffffffffffffffffffff168152602001908152602001600020600083815260200190815260200160002060009054906101000a900460ff16151514611867576040517f08c379a000000000000000000000000000000000000000000000000000000000815260040161185e9061307a565b60405180910390fd5b6001600860003373ffffffffffffffffffffffffffffffffffffffff1673ffffffffffffffffffffffffffffffffffffffff168152602001908152602001600020600083815260200190815260200160002060006101000a81548160ff02191690831515021790555050565b6000600660008473ffffffffffffffffffffffffffffffffffffffff1673ffffffffffffffffffffffffffffffffffffffff168152602001908152602001600020600083815260200190815260200160002054905092915050565b6000600760008473ffffffffffffffffffffffffffffffffffffffff1673ffffffffffffffffffffffffffffffffffffffff168152602001908152602001600020600083815260200190815260200160002060009054906101000a900460ff16905092915050565b60011515600760003373ffffffffffffffffffffffffffffffffffffffff1673ffffffffffffffffffffffffffffffffffffffff168152602001908152602001600020600083815260200190815260200160002060009054906101000a900460ff16151514611a3a576040517f08c379a0000000000000000000000000000000000000000000000000000000008152600401611a319061300e565b60405180910390fd5b60011515600860003373ffffffffffffffffffffffffffffffffffffffff1673ffffffffffffffffffffffffffffffffffffffff168152602001908152602001600020600083815260200190815260200160002060009054906101000a900460ff16151514611ade576040517f08c379a0000000000000000000000000000000000000000000000000000000008152600401611ad5906130e6565b60405180910390fd5b6000600860003373ffffffffffffffffffffffffffffffffffffffff1673ffffffffffffffffffffffffffffffffffffffff168152602001908152602001600020600083815260200190815260200160002060006101000a81548160ff02191690831515021790555050565b6060600560008373ffffffffffffffffffffffffffffffffffffffff1673ffffffffffffffffffffffffffffffffffffffff168152602001908152602001600020805480602002602001604051908101604052809291908181526020018280548015611bd557602002820191906000526020600020905b815481526020019060010190808311611bc1575b50505050509050919050565b60036020528060005260406000206000915090508060000160009054906101000a900473ffffffffffffffffffffffffffffffffffffffff1690806001018054611c2a90612ddb565b80601f0160208091040260200160405190810160405280929190818152602001828054611c5690612ddb565b8015611ca35780601f10611c7857610100808354040283529160200191611ca3565b820191906000526020600020905b815481529060010190602001808311611c8657829003601f168201915b505050505090806002015490806003018054611cbe90612ddb565b80601f0160208091040260200160405190810160405280929190818152602001828054611cea90612ddb565b8015611d375780601f10611d0c57610100808354040283529160200191611d37565b820191906000526020600020905b815481529060010190602001808311611d1a57829003601f168201915b5050505050908060040154905085565b600160003373ffffffffffffffffffffffffffffffffffffffff1673ffffffffffffffffffffffffffffffffffffffff16815260200190815260200160002060009054906101000a900460ff1615611dd4576040517f08c379a0000000000000000000000000000000000000000000000000000000008152600401611dcb90613152565b60405180910390fd5b600060405180606001604052803373ffffffffffffffffffffffffffffffffffffffff16815260200184815260200183815250905080600260003373ffffffffffffffffffffffffffffffffffffffff1673ffffffffffffffffffffffffffffffffffffffff16815260200190815260200160002060008201518160000160006101000a81548173ffffffffffffffffffffffffffffffffffffffff021916908373ffffffffffffffffffffffffffffffffffffffff1602179055506020820151816001019080519060200190611eac929190612260565b506040820151816002019080519060200190611ec9929190612260565b5090505060018060003373ffffffffffffffffffffffffffffffffffffffff1673ffffffffffffffffffffffffffffffffffffffff16815260200190815260200160002060006101000a81548160ff021916908315150217905550505050565b600080611f366064611f8a565b9050611f5d83611f4f838761201b90919063ffffffff16565b61202f90919063ffffffff16565b91505092915050565b7f000000000000000000000000000000000000000000000000000000000000000081565b6000670de0b6b3a76400007fffffffffffffffffffffffffffffffffffffffffffffffffffffffffffffffff81611fc457611fc3613172565b5b0482111561200957816040517f3492ffd90000000000000000000000000000000000000000000000000000000081526004016120009190612483565b60405180910390fd5b670de0b6b3a764000082029050919050565b6000612027838361204c565b905092915050565b600061204483670de0b6b3a76400008461214a565b905092915050565b60008060008019848609848602925082811083820303915050670de0b6b3a764000081106120b157806040517fd31b34020000000000000000000000000000000000000000000000000000000081526004016120a89190612483565b60405180910390fd5b600080670de0b6b3a764000086880991506706f05b59d3b1ffff8211905060008314156120fe5780670de0b6b3a764000085816120f1576120f0613172565b5b0401945050505050612144565b807faccb18165bd6fe31ae1cf318dc5b51eee0e1ba569b88cd74c1773b91fac1066960016204000080600003040186851186030262040000858803041702019450505050505b92915050565b6000806000801985870985870292508281108382030391505060008114156121865783828161217c5761217b613172565b5b0492505050612259565b8381106121cc5780846040517f773cc18c0000000000000000000000000000000000000000000000000000000081526004016121c39291906131a1565b60405180910390fd5b60008486880990508281118203915080830392506000600186190186169050808604955080840493506001818260000304019050808302841793506000600287600302189050808702600203810290508087026002038102905080870260020381029050808702600203810290508087026002038102905080870260020381029050808502955050505050505b9392505050565b82805461226c90612ddb565b90600052602060002090601f01602090048101928261228e57600085556122d5565b82601f106122a757805160ff19168380011785556122d5565b828001600101855582156122d5579182015b828111156122d45782518255916020019190600101906122b9565b5b5090506122e291906122e6565b5090565b5b808211156122ff5760008160009055506001016122e7565b5090565b6000604051905090565b600080fd5b600080fd5b600073ffffffffffffffffffffffffffffffffffffffff82169050919050565b600061234282612317565b9050919050565b61235281612337565b811461235d57600080fd5b50565b60008135905061236f81612349565b92915050565b6000819050919050565b61238881612375565b811461239357600080fd5b50565b6000813590506123a58161237f565b92915050565b600080604083850312156123c2576123c161230d565b5b60006123d085828601612360565b92505060206123e185828601612396565b9150509250929050565b60008115159050919050565b612400816123eb565b82525050565b600060208201905061241b60008301846123f7565b92915050565b60008060006060848603121561243a5761243961230d565b5b600061244886828701612396565b935050602061245986828701612396565b925050604061246a86828701612360565b9150509250925092565b61247d81612375565b82525050565b60006020820190506124986000830184612474565b92915050565b6000602082840312156124b4576124b361230d565b5b60006124c284828501612360565b91505092915050565b6124d481612337565b82525050565b600081519050919050565b600082825260208201905092915050565b60005b838110156125145780820151818401526020810190506124f9565b83811115612523576000848401525b50505050565b6000601f19601f8301169050919050565b6000612545826124da565b61254f81856124e5565b935061255f8185602086016124f6565b61256881612529565b840191505092915050565b600060608201905061258860008301866124cb565b818103602083015261259a818561253a565b905081810360408301526125ae818461253a565b9050949350505050565b600080604083850312156125cf576125ce61230d565b5b60006125dd85828601612396565b92505060206125ee85828601612396565b9150509250929050565b600060208201905061260d60008301846124cb565b92915050565b600080fd5b600080fd5b7f4e487b7100000000000000000000000000000000000000000000000000000000600052604160045260246000fd5b61265582612529565b810181811067ffffffffffffffff821117156126745761267361261d565b5b80604052505050565b6000612687612303565b9050612693828261264c565b919050565b600067ffffffffffffffff8211156126b3576126b261261d565b5b6126bc82612529565b9050602081019050919050565b82818337600083830152505050565b60006126eb6126e684612698565b61267d565b90508281526020810184848401111561270757612706612618565b5b6127128482856126c9565b509392505050565b600082601f83011261272f5761272e612613565b5b813561273f8482602086016126d8565b91505092915050565b6000806000606084860312156127615761276061230d565b5b600084013567ffffffffffffffff81111561277f5761277e612312565b5b61278b8682870161271a565b935050602084013567ffffffffffffffff8111156127ac576127ab612312565b5b6127b88682870161271a565b92505060406127c986828701612396565b9150509250925092565b6000602082840312156127e9576127e861230d565b5b60006127f784828501612396565b91505092915050565b600081519050919050565b600082825260208201905092915050565b6000819050602082019050919050565b61283581612337565b82525050565b6000612847838361282c565b60208301905092915050565b6000602082019050919050565b600061286b82612800565b612875818561280b565b93506128808361281c565b8060005b838110156128b1578151612898888261283b565b97506128a383612853565b925050600181019050612884565b5085935050505092915050565b600060208201905081810360008301526128d88184612860565b905092915050565b600081519050919050565b600082825260208201905092915050565b6000819050602082019050919050565b61291581612375565b82525050565b6000612927838361290c565b60208301905092915050565b6000602082019050919050565b600061294b826128e0565b61295581856128eb565b9350612960836128fc565b8060005b83811015612991578151612978888261291b565b975061298383612933565b925050600181019050612964565b5085935050505092915050565b600060208201905081810360008301526129b88184612940565b905092915050565b600060a0820190506129d560008301886124cb565b81810360208301526129e7818761253a565b90506129f66040830186612474565b8181036060830152612a08818561253a565b9050612a176080830184612474565b9695505050505050565b60008060408385031215612a3857612a3761230d565b5b600083013567ffffffffffffffff811115612a5657612a55612312565b5b612a628582860161271a565b925050602083013567ffffffffffffffff811115612a8357612a82612312565b5b612a8f8582860161271a565b9150509250929050565b6000819050919050565b6000612abe612ab9612ab484612317565b612a99565b612317565b9050919050565b6000612ad082612aa3565b9050919050565b6000612ae282612ac5565b9050919050565b612af281612ad7565b82525050565b6000602082019050612b0d6000830184612ae9565b92915050565b600082825260208201905092915050565b7f4e6f2072652d656e7472616e6379000000000000000000000000000000000000600082015250565b6000612b5a600e83612b13565b9150612b6582612b24565b602082019050919050565b60006020820190508181036000830152612b8981612b4d565b9050919050565b7f76616c7565206e656564732067726561746572207468616e207a65726f000000600082015250565b6000612bc6601d83612b13565b9150612bd182612b90565b602082019050919050565b60006020820190508181036000830152612bf581612bb9565b9050919050565b7f6964206e656564732067726561746572207468616e207a65726f000000000000600082015250565b6000612c32601a83612b13565b9150612c3d82612bfc565b602082019050919050565b60006020820190508181036000830152612c6181612c25565b9050919050565b7f6164647220646f65736e27742065786973740000000000000000000000000000600082015250565b6000612c9e601283612b13565b9150612ca982612c68565b602082019050919050565b60006020820190508181036000830152612ccd81612c91565b9050919050565b7f6f776e657220646f6e2774206f776e2074686973206964000000000000000000600082015250565b6000612d0a601783612b13565b9150612d1582612cd4565b602082019050919050565b60006020820190508181036000830152612d3981612cfd565b9050919050565b7f796f7520646f6e2774206f776e20746869732061737365740000000000000000600082015250565b6000612d76601883612b13565b9150612d8182612d40565b602082019050919050565b60006020820190508181036000830152612da581612d69565b9050919050565b7f4e487b7100000000000000000000000000000000000000000000000000000000600052602260045260246000fd5b60006002820490506001821680612df357607f821691505b60208210811415612e0757612e06612dac565b5b50919050565b7f796f752063616e742070726f6365656400000000000000000000000000000000600082015250565b6000612e43601083612b13565b9150612e4e82612e0d565b602082019050919050565b60006020820190508181036000830152612e7281612e36565b9050919050565b7f4e487b7100000000000000000000000000000000000000000000000000000000600052601160045260246000fd5b6000612eb382612375565b9150612ebe83612375565b925082821015612ed157612ed0612e79565b5b828203905092915050565b6000606082019050612ef160008301866124cb565b612efe60208301856124cb565b612f0b6040830184612474565b949350505050565b612f1c816123eb565b8114612f2757600080fd5b50565b600081519050612f3981612f13565b92915050565b600060208284031215612f5557612f5461230d565b5b6000612f6384828501612f2a565b91505092915050565b6000612f7782612375565b9150612f8283612375565b9250827fffffffffffffffffffffffffffffffffffffffffffffffffffffffffffffffff03821115612fb757612fb6612e79565b5b828201905092915050565b7f6f776e6572206973206e6f742063616c6c696e67000000000000000000000000600082015250565b6000612ff8601483612b13565b915061300382612fc2565b602082019050919050565b6000602082019050818103600083015261302781612feb565b9050919050565b7f73656c6c20697320616c7265616479206f6e0000000000000000000000000000600082015250565b6000613064601283612b13565b915061306f8261302e565b602082019050919050565b6000602082019050818103600083015261309381613057565b9050919050565b7f73656c6c20697320616c7265616479206f666600000000000000000000000000600082015250565b60006130d0601383612b13565b91506130db8261309a565b602082019050919050565b600060208201905081810360008301526130ff816130c3565b9050919050565b7f6164647220616c72656164792065786973740000000000000000000000000000600082015250565b600061313c601283612b13565b915061314782613106565b602082019050919050565b6000602082019050818103600083015261316b8161312f565b9050919050565b7f4e487b7100000000000000000000000000000000000000000000000000000000600052601260045260246000fd5b60006040820190506131b66000830185612474565b6131c36020830184612474565b939250505056fea26469706673582212206270366ae374862cd12c2d5a6e390b1657b345305415bd25b3b9899fea2b982264736f6c63430008090033",
  "linkReferences": {},
  "deployedLinkReferences": {}
}