{
    "contractName": "realestate",
    "abi": [
        {
            "inputs": [
                {
                    "internalType": "address",
                    "name": "_token",
                    "type": "address"
                }
            ],
            "stateMutability": "nonpayable",
            "type": "constructor"
        },
        {
            "inputs": [
                {
                    "internalType": "uint256",
                    "name": "x",
                    "type": "uint256"
                }
            ],
            "name": "PRBMathUD60x18__FromUintOverflow",
            "type": "error"
        },
        {
            "inputs": [
                {
                    "internalType": "uint256",
                    "name": "prod1",
                    "type": "uint256"
                }
            ],
            "name": "PRBMath__MulDivFixedPointOverflow",
            "type": "error"
        },
        {
            "inputs": [
                {
                    "internalType": "uint256",
                    "name": "prod1",
                    "type": "uint256"
                },
                {
                    "internalType": "uint256",
                    "name": "denominator",
                    "type": "uint256"
                }
            ],
            "name": "PRBMath__MulDivOverflow",
            "type": "error"
        },
        {
            "inputs": [
                {
                    "internalType": "address",
                    "name": "",
                    "type": "address"
                }
            ],
            "name": "BSdetails",
            "outputs": [
                {
                    "internalType": "address",
                    "name": "buyer",
                    "type": "address"
                },
                {
                    "internalType": "bytes",
                    "name": "location",
                    "type": "bytes"
                },
                {
                    "internalType": "bytes",
                    "name": "contact",
                    "type": "bytes"
                }
            ],
            "stateMutability": "view",
            "type": "function"
        },
        {
            "inputs": [
                {
                    "internalType": "uint256",
                    "name": "id",
                    "type": "uint256"
                },
                {
                    "internalType": "uint256",
                    "name": "amount",
                    "type": "uint256"
                },
                {
                    "internalType": "address",
                    "name": "owner",
                    "type": "address"
                }
            ],
            "name": "BuyAsset",
            "outputs": [],
            "stateMutability": "nonpayable",
            "type": "function"
        },
        {
            "inputs": [
                {
                    "internalType": "bytes",
                    "name": "assetLocation",
                    "type": "bytes"
                },
                {
                    "internalType": "bytes",
                    "name": "assetcontact",
                    "type": "bytes"
                },
                {
                    "internalType": "uint256",
                    "name": "assetcost",
                    "type": "uint256"
                }
            ],
            "name": "addAsset",
            "outputs": [],
            "stateMutability": "nonpayable",
            "type": "function"
        },
        {
            "inputs": [
                {
                    "internalType": "bytes",
                    "name": "_location",
                    "type": "bytes"
                },
                {
                    "internalType": "bytes",
                    "name": "_contact",
                    "type": "bytes"
                }
            ],
            "name": "addbuyerseller",
            "outputs": [],
            "stateMutability": "nonpayable",
            "type": "function"
        },
        {
            "inputs": [
                {
                    "internalType": "uint256",
                    "name": "",
                    "type": "uint256"
                }
            ],
            "name": "assetDetails",
            "outputs": [
                {
                    "internalType": "address",
                    "name": "owner",
                    "type": "address"
                },
                {
                    "internalType": "bytes",
                    "name": "location",
                    "type": "bytes"
                },
                {
                    "internalType": "uint256",
                    "name": "id",
                    "type": "uint256"
                },
                {
                    "internalType": "bytes",
                    "name": "contact",
                    "type": "bytes"
                },
                {
                    "internalType": "uint256",
                    "name": "cost",
                    "type": "uint256"
                }
            ],
            "stateMutability": "view",
            "type": "function"
        },
        {
            "inputs": [],
            "name": "assetid",
            "outputs": [
                {
                    "internalType": "uint256",
                    "name": "",
                    "type": "uint256"
                }
            ],
            "stateMutability": "view",
            "type": "function"
        },
        {
            "inputs": [
                {
                    "internalType": "uint256",
                    "name": "",
                    "type": "uint256"
                },
                {
                    "internalType": "uint256",
                    "name": "",
                    "type": "uint256"
                }
            ],
            "name": "assetowners",
            "outputs": [
                {
                    "internalType": "address",
                    "name": "",
                    "type": "address"
                }
            ],
            "stateMutability": "view",
            "type": "function"
        },
        {
            "inputs": [
                {
                    "internalType": "address",
                    "name": "",
                    "type": "address"
                },
                {
                    "internalType": "uint256",
                    "name": "",
                    "type": "uint256"
                }
            ],
            "name": "assetowns",
            "outputs": [
                {
                    "internalType": "uint256",
                    "name": "",
                    "type": "uint256"
                }
            ],
            "stateMutability": "view",
            "type": "function"
        },
        {
            "inputs": [
                {
                    "internalType": "address",
                    "name": "",
                    "type": "address"
                }
            ],
            "name": "exist",
            "outputs": [
                {
                    "internalType": "bool",
                    "name": "",
                    "type": "bool"
                }
            ],
            "stateMutability": "view",
            "type": "function"
        },
        {
            "inputs": [
                {
                    "internalType": "uint256",
                    "name": "id",
                    "type": "uint256"
                }
            ],
            "name": "getAssetowners",
            "outputs": [
                {
                    "internalType": "address[]",
                    "name": "",
                    "type": "address[]"
                }
            ],
            "stateMutability": "view",
            "type": "function"
        },
        {
            "inputs": [
                {
                    "internalType": "address",
                    "name": "owner",
                    "type": "address"
                }
            ],
            "name": "getAssetowns",
            "outputs": [
                {
                    "internalType": "uint256[]",
                    "name": "",
                    "type": "uint256[]"
                }
            ],
            "stateMutability": "view",
            "type": "function"
        },
        {
            "inputs": [
                {
                    "internalType": "address",
                    "name": "owner",
                    "type": "address"
                },
                {
                    "internalType": "uint256",
                    "name": "Assetid",
                    "type": "uint256"
                }
            ],
            "name": "getOwn",
            "outputs": [
                {
                    "internalType": "bool",
                    "name": "",
                    "type": "bool"
                }
            ],
            "stateMutability": "view",
            "type": "function"
        },
        {
            "inputs": [
                {
                    "internalType": "uint256",
                    "name": "a",
                    "type": "uint256"
                },
                {
                    "internalType": "uint256",
                    "name": "b",
                    "type": "uint256"
                }
            ],
            "name": "getPercentage",
            "outputs": [
                {
                    "internalType": "uint256",
                    "name": "",
                    "type": "uint256"
                }
            ],
            "stateMutability": "pure",
            "type": "function"
        },
        {
            "inputs": [
                {
                    "internalType": "address",
                    "name": "owner",
                    "type": "address"
                },
                {
                    "internalType": "uint256",
                    "name": "_assetid",
                    "type": "uint256"
                }
            ],
            "name": "getPercentageown",
            "outputs": [
                {
                    "internalType": "uint256",
                    "name": "",
                    "type": "uint256"
                }
            ],
            "stateMutability": "view",
            "type": "function"
        },
        {
            "inputs": [
                {
                    "internalType": "address",
                    "name": "owner",
                    "type": "address"
                },
                {
                    "internalType": "uint256",
                    "name": "assetId",
                    "type": "uint256"
                }
            ],
            "name": "getSellonof",
            "outputs": [
                {
                    "internalType": "bool",
                    "name": "",
                    "type": "bool"
                }
            ],
            "stateMutability": "view",
            "type": "function"
        },
        {
            "inputs": [
                {
                    "internalType": "address",
                    "name": "",
                    "type": "address"
                },
                {
                    "internalType": "uint256",
                    "name": "",
                    "type": "uint256"
                }
            ],
            "name": "own",
            "outputs": [
                {
                    "internalType": "bool",
                    "name": "",
                    "type": "bool"
                }
            ],
            "stateMutability": "view",
            "type": "function"
        },
        {
            "inputs": [
                {
                    "internalType": "address",
                    "name": "",
                    "type": "address"
                },
                {
                    "internalType": "uint256",
                    "name": "",
                    "type": "uint256"
                }
            ],
            "name": "percentageown",
            "outputs": [
                {
                    "internalType": "uint256",
                    "name": "",
                    "type": "uint256"
                }
            ],
            "stateMutability": "view",
            "type": "function"
        },
        {
            "inputs": [
                {
                    "internalType": "uint256",
                    "name": "id",
                    "type": "uint256"
                }
            ],
            "name": "selloff",
            "outputs": [],
            "stateMutability": "nonpayable",
            "type": "function"
        },
        {
            "inputs": [
                {
                    "internalType": "uint256",
                    "name": "id",
                    "type": "uint256"
                }
            ],
            "name": "sellon",
            "outputs": [],
            "stateMutability": "nonpayable",
            "type": "function"
        },
        {
            "inputs": [
                {
                    "internalType": "address",
                    "name": "",
                    "type": "address"
                },
                {
                    "internalType": "uint256",
                    "name": "",
                    "type": "uint256"
                }
            ],
            "name": "sellonof",
            "outputs": [
                {
                    "internalType": "bool",
                    "name": "",
                    "type": "bool"
                }
            ],
            "stateMutability": "view",
            "type": "function"
        },
        {
            "inputs": [],
            "name": "token",
            "outputs": [
                {
                    "internalType": "contract IERC20",
                    "name": "",
                    "type": "address"
                }
            ],
            "stateMutability": "view",
            "type": "function"
        }
    ],
    "bytecode": "60a060405234801561001057600080fd5b50604051611c1a380380611c1a83398101604081905261002f91610040565b6001600160a01b0316608052610070565b60006020828403121561005257600080fd5b81516001600160a01b038116811461006957600080fd5b9392505050565b608051611b81610099600039600081816103d1015281816108ef0152610a6c0152611b816000f3fe608060405234801561001057600080fd5b50600436106101375760003560e01c80638ac9fa37116100b8578063a840c55c1161007c578063a840c55c1461034f578063b80bfff214610362578063c396752814610382578063cd8d0515146103a6578063f74f3655146103b9578063fc0c546a146103cc57600080fd5b80638ac9fa3714610282578063934960f2146102a25780639b5c483e146102cd5780639e30afab146102e0578063a7d963041461031657600080fd5b80634dfefc4b116100ff5780634dfefc4b146101ea57806356354b261461020d578063626e5b101461023857806362b1fa391461024157806366873f641461026f57600080fd5b80630682c4a41461013c578063104972311461017f57806339e888171461019457806345454362146101a757806349143619146101c8575b600080fd5b61016a61014a3660046115fb565b600760209081526000928352604080842090915290825290205460ff1681565b60405190151581526020015b60405180910390f35b61019261018d366004611625565b6103f3565b005b61016a6101a23660046115fb565b610af0565b6101ba6101b53660046115fb565b610b1e565b604051908152602001610176565b6101db6101d636600461165a565b610b4f565b604051610176939291906116c2565b61016a6101f836600461165a565b60016020526000908152604090205460ff1681565b61022061021b366004611702565b610c8c565b6040516001600160a01b039091168152602001610176565b6101ba60005481565b61016a61024f3660046115fb565b600860209081526000928352604080842090915290825290205460ff1681565b61019261027d3660046117c7565b610cc4565b610295610290366004611834565b610eca565b604051610176919061184d565b6101ba6102b03660046115fb565b600660209081526000928352604080842090915290825290205481565b6101926102db366004611834565b610f36565b6101ba6102ee3660046115fb565b6001600160a01b03919091166000908152600660209081526040808320938352929052205490565b61016a6103243660046115fb565b6001600160a01b03919091166000908152600760209081526040808320938352929052205460ff1690565b61019261035d366004611834565b611022565b61037561037036600461165a565b611110565b604051610176919061189a565b610395610390366004611834565b61117b565b6040516101769594939291906118d2565b6101926103b4366004611921565b6112c4565b6101ba6103c7366004611702565b6113ad565b6102207f000000000000000000000000000000000000000000000000000000000000000081565b60095460ff161561043c5760405162461bcd60e51b815260206004820152600e60248201526d4e6f2072652d656e7472616e637960901b60448201526064015b60405180910390fd5b6009805460ff19166001179055816104965760405162461bcd60e51b815260206004820152601d60248201527f76616c7565206e656564732067726561746572207468616e207a65726f0000006044820152606401610433565b600083116104e65760405162461bcd60e51b815260206004820152601a60248201527f6964206e656564732067726561746572207468616e207a65726f0000000000006044820152606401610433565b3360009081526001602081905260409091205460ff161515146105405760405162461bcd60e51b81526020600482015260126024820152711859191c88191bd95cdb89dd08195e1a5cdd60721b6044820152606401610433565b6001600160a01b038116600090815260076020908152604080832086845290915290205460ff1615156001146105b85760405162461bcd60e51b815260206004820152601760248201527f6f776e657220646f6e2774206f776e20746869732069640000000000000000006044820152606401610433565b6001600160a01b0381166000908152600660209081526040808320868452909152902054806106295760405162461bcd60e51b815260206004820152601860248201527f796f7520646f6e2774206f776e207468697320617373657400000000000000006044820152606401610433565b60016000908152600360209081526040805160a081019091527fa15bc60c955c405d20d9149c709e2460f1c2d9a497496a7f46004d1772c3054c80546001600160a01b031682527fa15bc60c955c405d20d9149c709e2460f1c2d9a497496a7f46004d1772c3054d805492939192918401916106a490611985565b80601f01602080910402602001604051908101604052809291908181526020018280546106d090611985565b801561071d5780601f106106f25761010080835404028352916020019161071d565b820191906000526020600020905b81548152906001019060200180831161070057829003601f168201915b505050505081526020016002820154815260200160038201805461074090611985565b80601f016020809104026020016040519081016040528092919081815260200182805461076c90611985565b80156107b95780601f1061078e576101008083540402835291602001916107b9565b820191906000526020600020905b81548152906001019060200180831161079c57829003601f168201915b50505050508152602001600482015481525050905060008160800151905060006107e386836113ad565b9050838111156108285760405162461bcd60e51b815260206004820152601060248201526f1e5bdd4818d85b9d081c1c9bd8d9595960821b6044820152606401610433565b8381101561099157600061083c82866119d5565b6001600160a01b0380881660009081526006602081815260408084208e85528252808420869055338085529282528084208e85528252808420889055828452600782528084208e85528252808420805460ff191660019081179091558385526005835281852080548083018255908652838620018f90558e855260048084528286208054928301815586529290942090930180546001600160a01b0319168317905591516323b872dd60e01b81529394507f0000000000000000000000000000000000000000000000000000000000000000909216926323b872dd926109479290918b918d91016001600160a01b039384168152919092166020820152604081019190915260600190565b6020604051808303816000875af1158015610966573d6000803e3d6000fd5b505050506040513d601f19601f8201168201806040525081019061098a91906119ec565b5050610add565b6001600160a01b0385811660008181526006602081815260408084208d85528252808420849055338085529282528084208d8552825280842087905582845260078083528185208e865283528185208054600160ff1991821681179092558787529184528286208f8752845282862080549092169091556004808452828620805480840182559087528487200180546001600160a01b0319168617905584865260058452828620805492830181558652929094209093018c905591516323b872dd60e01b8152918201526024810191909152604481018890527f0000000000000000000000000000000000000000000000000000000000000000909116906323b872dd906064016020604051808303816000875af1158015610ab7573d6000803e3d6000fd5b505050506040513d601f19601f82011682018060405250810190610adb91906119ec565b505b50506009805460ff191690555050505050565b6001600160a01b038216600090815260086020908152604080832084845290915290205460ff165b92915050565b60056020528160005260406000208181548110610b3a57600080fd5b90600052602060002001600091509150505481565b600260205260009081526040902080546001820180546001600160a01b039092169291610b7b90611985565b80601f0160208091040260200160405190810160405280929190818152602001828054610ba790611985565b8015610bf45780601f10610bc957610100808354040283529160200191610bf4565b820191906000526020600020905b815481529060010190602001808311610bd757829003601f168201915b505050505090806002018054610c0990611985565b80601f0160208091040260200160405190810160405280929190818152602001828054610c3590611985565b8015610c825780601f10610c5757610100808354040283529160200191610c82565b820191906000526020600020905b815481529060010190602001808311610c6557829003601f168201915b5050505050905083565b60046020528160005260406000208181548110610ca857600080fd5b6000918252602090912001546001600160a01b03169150829050565b60095460ff1615610d085760405162461bcd60e51b815260206004820152600e60248201526d4e6f2072652d656e7472616e637960901b6044820152606401610433565b6009805460ff191660019081179091553360009081526020829052604090205460ff16151514610d6f5760405162461bcd60e51b81526020600482015260126024820152711859191c88191bd95cdb89dd08195e1a5cdd60721b6044820152606401610433565b6001600080828254610d819190611a0e565b9091555050600080548152600460209081526040808320805460018082018355918552838520018054336001600160a01b0319918216811790925581865260058552838620865481548086018355918852868820909101558186526006855283862086548752855283862068056bc75e2d63100000905581865260078552838620865487528552838620805460ff1990811685179091558287526008865284872087548852865284872080549091169055835160a0810185529182528185018981528654838601819052606084018a9052608084018990528752600390955292909420845181549093166001600160a01b0390931692909217825591518392820190610e8d9082611a75565b506040820151600282015560608201516003820190610eac9082611a75565b506080919091015160049091015550506009805460ff191690555050565b600081815260046020908152604091829020805483518184028101840190945280845260609392830182828015610f2a57602002820191906000526020600020905b81546001600160a01b03168152600190910190602001808311610f0c575b50505050509050919050565b33600090815260076020908152604080832084845290915290205460ff161515600114610f9c5760405162461bcd60e51b81526020600482015260146024820152736f776e6572206973206e6f742063616c6c696e6760601b6044820152606401610433565b33600090815260086020908152604080832084845290915290205460ff1615610ffc5760405162461bcd60e51b815260206004820152601260248201527139b2b6361034b99030b63932b0b23c9037b760711b6044820152606401610433565b33600090815260086020908152604080832093835292905220805460ff19166001179055565b33600090815260076020908152604080832084845290915290205460ff1615156001146110885760405162461bcd60e51b81526020600482015260146024820152736f776e6572206973206e6f742063616c6c696e6760601b6044820152606401610433565b33600090815260086020908152604080832084845290915290205460ff1615156001146110ed5760405162461bcd60e51b815260206004820152601360248201527239b2b6361034b99030b63932b0b23c9037b33360691b6044820152606401610433565b33600090815260086020908152604080832093835292905220805460ff19169055565b6001600160a01b038116600090815260056020908152604091829020805483518184028101840190945280845260609392830182828015610f2a57602002820191906000526020600020905b81548152602001906001019080831161115c5750505050509050919050565b600360205260009081526040902080546001820180546001600160a01b0390921692916111a790611985565b80601f01602080910402602001604051908101604052809291908181526020018280546111d390611985565b80156112205780601f106111f557610100808354040283529160200191611220565b820191906000526020600020905b81548152906001019060200180831161120357829003601f168201915b50505050509080600201549080600301805461123b90611985565b80601f016020809104026020016040519081016040528092919081815260200182805461126790611985565b80156112b45780601f10611289576101008083540402835291602001916112b4565b820191906000526020600020905b81548152906001019060200180831161129757829003601f168201915b5050505050908060040154905085565b3360009081526001602052604090205460ff16156113195760405162461bcd60e51b81526020600482015260126024820152711859191c88185b1c9958591e48195e1a5cdd60721b6044820152606401610433565b6040805160608101825233808252602080830186815283850186905260009283526002909152929020815181546001600160a01b0319166001600160a01b0390911617815591519091829160018201906113739082611a75565b50604082015160028201906113889082611a75565b5050336000908152600160208190526040909120805460ff1916909117905550505050565b6000806113ba60646113d8565b90506113d0836113ca8684611425565b90611438565b949350505050565b60007812725dd1d243aba0e75fe645cc4873f9e65afe688c928e1f2182111561141757604051633492ffd960e01b815260048101839052602401610433565b50670de0b6b3a76400000290565b6000611431838361144d565b9392505050565b600061143183670de0b6b3a764000084611513565b60008080600019848609848602925082811083820303915050670de0b6b3a764000081106114915760405163698d9a0160e11b815260048101829052602401610433565b600080670de0b6b3a764000086880991506706f05b59d3b1ffff82119050826000036114cf5780670de0b6b3a7640000850401945050505050610b18565b620400008285030493909111909103600160ee1b02919091177faccb18165bd6fe31ae1cf318dc5b51eee0e1ba569b88cd74c1773b91fac106690201905092915050565b600080806000198587098587029250828110838203039150508060000361154d5783828161154357611543611b35565b0492505050611431565b83811061157757604051631dcf306360e21b81526004810182905260248101859052604401610433565b600084868809600260036001881981018916988990049182028318808302840302808302840302808302840302808302840302808302840302918202909203026000889003889004909101858311909403939093029303949094049190911702949350505050565b80356001600160a01b03811681146115f657600080fd5b919050565b6000806040838503121561160e57600080fd5b611617836115df565b946020939093013593505050565b60008060006060848603121561163a57600080fd5b8335925060208401359150611651604085016115df565b90509250925092565b60006020828403121561166c57600080fd5b611431826115df565b6000815180845260005b8181101561169b5760208185018101518683018201520161167f565b818111156116ad576000602083870101525b50601f01601f19169290920160200192915050565b6001600160a01b03841681526060602082018190526000906116e690830185611675565b82810360408401526116f88185611675565b9695505050505050565b6000806040838503121561171557600080fd5b50508035926020909101359150565b634e487b7160e01b600052604160045260246000fd5b600082601f83011261174b57600080fd5b813567ffffffffffffffff8082111561176657611766611724565b604051601f8301601f19908116603f0116810190828211818310171561178e5761178e611724565b816040528381528660208588010111156117a757600080fd5b836020870160208301376000602085830101528094505050505092915050565b6000806000606084860312156117dc57600080fd5b833567ffffffffffffffff808211156117f457600080fd5b6118008783880161173a565b9450602086013591508082111561181657600080fd5b506118238682870161173a565b925050604084013590509250925092565b60006020828403121561184657600080fd5b5035919050565b6020808252825182820181905260009190848201906040850190845b8181101561188e5783516001600160a01b031683529284019291840191600101611869565b50909695505050505050565b6020808252825182820181905260009190848201906040850190845b8181101561188e578351835292840192918401916001016118b6565b6001600160a01b038616815260a0602082018190526000906118f690830187611675565b856040840152828103606084015261190e8186611675565b9150508260808301529695505050505050565b6000806040838503121561193457600080fd5b823567ffffffffffffffff8082111561194c57600080fd5b6119588683870161173a565b9350602085013591508082111561196e57600080fd5b5061197b8582860161173a565b9150509250929050565b600181811c9082168061199957607f821691505b6020821081036119b957634e487b7160e01b600052602260045260246000fd5b50919050565b634e487b7160e01b600052601160045260246000fd5b6000828210156119e7576119e76119bf565b500390565b6000602082840312156119fe57600080fd5b8151801515811461143157600080fd5b60008219821115611a2157611a216119bf565b500190565b601f821115611a7057600081815260208120601f850160051c81016020861015611a4d5750805b601f850160051c820191505b81811015611a6c57828155600101611a59565b5050505b505050565b815167ffffffffffffffff811115611a8f57611a8f611724565b611aa381611a9d8454611985565b84611a26565b602080601f831160018114611ad85760008415611ac05750858301515b600019600386901b1c1916600185901b178555611a6c565b600085815260208120601f198616915b82811015611b0757888601518255948401946001909101908401611ae8565b5085821015611b255787850151600019600388901b60f8161c191681555b5050505050600190811b01905550565b634e487b7160e01b600052601260045260246000fdfea2646970667358221220d3e7f7bd57fd159ebb186be1c18466daf37ee54db9c4c9a3594a57e99a92a99b64736f6c634300080f0033",
    "sourcePath": "/home/almur/Documents/resume/realestate/smartcontract/contracts/realestate.sol",
    "compiler": {
        "name": "solc",
        "version": "0.8.15+commit.e14f2714"
    },
    "functionHashes": {
        "BSdetails(address)": "49143619",
        "BuyAsset(uint256,uint256,address)": "10497231",
        "addAsset(bytes,bytes,uint256)": "66873f64",
        "addbuyerseller(bytes,bytes)": "cd8d0515",
        "assetDetails(uint256)": "c3967528",
        "assetid()": "626e5b10",
        "assetowners(uint256,uint256)": "56354b26",
        "assetowns(address,uint256)": "45454362",
        "exist(address)": "4dfefc4b",
        "getAssetowners(uint256)": "8ac9fa37",
        "getAssetowns(address)": "b80bfff2",
        "getOwn(address,uint256)": "a7d96304",
        "getPercentage(uint256,uint256)": "f74f3655",
        "getPercentageown(address,uint256)": "9e30afab",
        "getSellonof(address,uint256)": "39e88817",
        "own(address,uint256)": "0682c4a4",
        "percentageown(address,uint256)": "934960f2",
        "selloff(uint256)": "a840c55c",
        "sellon(uint256)": "9b5c483e",
        "sellonof(address,uint256)": "62b1fa39",
        "token()": "fc0c546a"
    },
    "gasEstimates": {
        "creation": {
            "codeDepositCost": "1408200",
            "executionCost": "infinite",
            "totalCost": "infinite"
        },
        "external": {
            "BSdetails(address)": "infinite",
            "BuyAsset(uint256,uint256,address)": "infinite",
            "addAsset(bytes,bytes,uint256)": "infinite",
            "addbuyerseller(bytes,bytes)": "infinite",
            "assetDetails(uint256)": "infinite",
            "assetid()": "2362",
            "assetowners(uint256,uint256)": "4750",
            "assetowns(address,uint256)": "4834",
            "exist(address)": "2543",
            "getAssetowners(uint256)": "infinite",
            "getAssetowns(address)": "infinite",
            "getOwn(address,uint256)": "2748",
            "getPercentage(uint256,uint256)": "infinite",
            "getPercentageown(address,uint256)": "2725",
            "getSellonof(address,uint256)": "2722",
            "own(address,uint256)": "2637",
            "percentageown(address,uint256)": "2657",
            "selloff(uint256)": "29148",
            "sellon(uint256)": "29190",
            "sellonof(address,uint256)": "2702",
            "token()": "infinite"
        }
    }
}